:020000040000FA
:060000000A128A110C280F
:10000800FE00030EF1000A08F2000A128A15C52D37
:100018000A128A110F28F901FA0183120313EA015F
:10002800EB01EC01ED01EE018313A0308400C63032
:100038000A128A1554240A128A1183010A128A1193
:1000480025280A128A1557250A128A116400831274
:1000580003138618302831287E280A128A11EF22C5
:100068000A128A11F701F70A01300A128A15B22713
:100078000A128A11B83083120313A0008030A1003D
:100088000A128A1544260A128A11F701F70A023061
:100098000A128A15B2270A128A116B3083120313C7
:1000A800A0008030A1000A128A1544260A128A117B
:1000B8008312031387156E286400831203138715B0
:1000C800823083120313E800DD30E700E70B6A286B
:1000D800E80B6A2883120313061E73287428602805
:1000E800861C77287828602887110A128A11EF223F
:1000F8000A128A110A128A11B6240A128A110A12DD
:100108008A1566270A128A110030831203133602F1
:10011800283003193502031C9228932899286C0368
:100128006D04031D982899282A28061F9C289D28B5
:10013800E328DC2864000A128A11EF220A128A11C5
:10014800F701F70A01300A128A15B2270A128A1132
:100158005A3083120313A0008030A1000A128A15B6
:1001680044260A128A11F701F70A02300A128A1580
:10017800B2270A128A11363083120313A000803086
:10018800A1000A128A1544260A128A11831203133F
:100198000715023083120313E9000430E800B93070
:1001A800E700E70BD528E80BD528E90BD528DC288C
:1001B80083120313061BE128E2289E2807110A125E
:1001C8008A151A270A128A1102308312031336027B
:1001D800263003193502031CF228F32803290A12D2
:1001E8008A151A270A128A1102308312031336025B
:1001F8008B3003193502031C02290329B4290A127A
:100208008A11EF220A128A11942964000A128A11AB
:100218000F260A128A110A128A151A270A128A1137
:1002280002308312031336028B3003193502031C84
:100238001E291F29472907140A128A151A270A1284
:100248008A110230831203133602EF300319350284
:10025800031C2F2930293A290430F3000030F40018
:100268000A128A1576240A128A1143290230F300E9
:100278000030F4000A128A1576240A128A118312B1
:10028800031307107E290A128A151A270A128A11DF
:10029800023083120313360226300319350203187D
:1002A800562957297E2987140A128A151A270A12ED
:1002B8008A110130831203133602C2300319350242
:1002C80003186729682972290430F3000030F40004
:1002D8000A128A1576240A128A117B290230F30041
:1002E8000030F4000A128A1576240A128A11831241
:1002F8000313871087160230F3000030F4000A1247
:100308008A1576240A128A1183120313871202307F
:10031800F3000030F4000A128A1576240A128A11B2
:100328000A128A151A270A128A1102308312031335
:100338003602263003193502031CA329A4290929EA
:100348000A128A151A270A128A1102308312031315
:1003580036028B30031935020318B329B429092949
:100368000A128A11EF220A128A110A128A156627BE
:100378000A128A1183120313360883160313DF0047
:1003880083120313350883160313DE008312031345
:100398006C036D04031DD129D229132A003083165A
:1003A80003135F023C3003195E02031CDC29DD29BC
:1003B800132AF701F70A01300A128A15B2270A121E
:1003C8008A118C3083120313A0008030A1000A1216
:1003D8008A1544260A128A11F701F70A02300A120E
:1003E8008A15B2270A128A11493083120313A00012
:1003F8008030A1000A128A1544260A128A11831233
:10040800031307160230F3000030F4000A128A15AD
:1004180076240A128A11831203130712392A00302C
:10042800831603135F023C3003195E0203181D2A6A
:100438001E2A392A282A64000A128A15D2260A1284
:100448008A118312031307160A128A1566270A12DD
:100458008A1100308312031336023C300319350227
:10046800031C372A382A1F2A07128312EC01ED01D0
:100478000A128A11EF220A128A112A280A128A11EC
:100488000C2883120313A301A401200884008313FA
:10049800000884000A128A110A230A128A112A3AC9
:1004A800031D572A582A862A20088400013080070D
:1004B800210884000008FF00023080077F088400BC
:1004C8000008A300840A0008A400972A2408F4005E
:1004D8002308F3000A30F5000030F6000A128A15E6
:1004E800FD240A128A118312031322087307A3003A
:1004F8000030031801307407A4002008840001307C
:100508008313800720088400000884000A128A11D7
:100518000A230A128A11D03EA2000A302202031CC2
:10052800962A972A6A2A2408A1002308A00008000E
:10053800831203136E1CA12AA22AAD2A3108A9002E
:100548002F08AA003008AB000A128A11D1270A1214
:100558008A1183120313B31FB22AB32AB52AB20130
:10056800B301B501B601CF2A2030F3000030F40002
:10057800831203132F08F5003008F6000A128A11B7
:100588006F250A128A11013083120313B507031865
:10059800B60A0030B6073608803AB4003308803A05
:1005A8003402031DD92A32083502031CDC2ADD2A4D
:1005B800B82A831203136E18E22AE32AEE2A3108B6
:1005C800A9002F08AA003008AB000A128A11D12707
:1005D8000A128A11080000300A128A155C240A12CD
:1005E8008A1101300A128A155C240A128A1108003D
:10060000FF1B0A2B83137F1883170008840A031922
:10061000FF0A080003308A000408840A82070034B5
:100620000234003402340034023400340234003422
:10063000703448343A342034253475342E3425341B
:100640003034323475342034203420342034203493
:1006500020342034203420342034203420342034FA
:10066000003455346D346934643461346434653431
:100670003A3420342534753420342534253420345C
:100680002034203420342034003445346E34633434
:10069000683465346E3464346F3420344E346934D5
:1006A000763465346C3420342034203420340034E3
:1006B000543465346D3470346F343A34203431340A
:1006C0003034733420342034203420342034203427
:1006D000003442346F346D346234613420344C342D
:1006E0006934673461346434613421342134203412
:1006F000203400344534733463346F3461346D34E2
:1007000065346E3474346F34203461347434693435
:1007100076346F34003441346A347534733474344D
:100720006534203464346534203450344834203403
:1007300020342034003449347234723469346734DC
:100740002E34203446346F3472346334613464346C
:1007500061342034003455346D3469346434613488
:10076000643465343A3420342534753420342534E7
:1007700025340034503448343A3420342534753428
:100780002E342534303432347534203400344E3431
:100790006934763465346C34203441346C347434C8
:1007A0006F34213421340034493472347234693462
:1007B00067346134633461346F342134213400345C
:1007C00083120313420884008313000884000A1272
:1007D0008A110A230A128A11253A031DF02BF12BE4
:1007E0009C2C4208840001308007EA01EB010030B4
:1007F000EE00FF3083160313A000FF30A100831228
:100800000313CA01192CEE1442088400013080073A
:10081000192C0130CA00192C4208840000088400F9
:100820000A128A110A230A128A11303A0319032C78
:10083000092C4A0803191D2C1E2C0C2C4208A00060
:100840004308A1000A128A1145220A128A11831252
:1008500003132108EB002008EA00EB1F302C312C99
:10086000372C6E14EA09EB09EA0A0319EB0A42086D
:10087000840083130008CB004B0884000A128A11FD
:100880000A230A128A11753A031D472C482C742C2E
:10089000430884000008FF00023080077F088400BE
:1008A0000008C600840A0008C700420884004B08FC
:1008B000013E8000692C4008B7004108B800470895
:1008C000BA004608B9000A128A1190260A128A1143
:1008D000B52C4B0884000A128A110A230A128A11C5
:1008E000753A03195B2C742C4208840000088400BC
:1008F0000A128A110A230A128A11253A031D812C31
:10090000822C942C42088400013080072530F300AB
:100910000030F4004008F5004108F6000A128A1180
:100920006F250A128A11B52C831203134208840022
:10093000013083138007B52C42088400000884002E
:100940000A128A110A230A128A11C400C501440836
:10095000F3004508F4004008F5004108F6000A12CB
:100960008A116F250A128A11942C08000A128A151E
:1009700066270A128A11831203133608831603139B
:10098000D70083120313350883160313D600C6302D
:1009900083120313D1002230D200831603135708A9
:1009A00083120313D4008316031356088312031310
:1009B000D3000A128A15DA240A128A11F701F70AFB
:1009C00001300A128A15B2270A128A11C630831220
:1009D0000313A0000030A1000A128A1544260A124F
:1009E0008A110A128A151A270A128A11831203130E
:1009F000360883160313DD008312031335088316AC
:100A00000313DC006430F3000030F4005D08F600EE
:100A10005C08F5000A128A1500260A128A11740869
:100A200083160313D9007308D8006430F300003034
:100A3000F4005D08F6005C08F5000A128A158D25A1
:100A40000A128A11740883160313DB007308DA0094
:100A5000C63083120313D1000930D200831603136A
:100A6000590883120313D400831603135808831202
:100A70000313D300831603135B0883120313D600FA
:100A8000831603135A0883120313D5000A128A151A
:100A9000DA240A128A11F701F70A02300A128A15BB
:100AA000B2270A128A11C63083120313A000003045
:100AB000A1000A128A1544260A128A1102308312F2
:100AC0000313E6000430E500B930E400E40B662DC2
:100AD000E50B662DE60B662D6D2D6400080075088C
:100AE00076040319742D752D7B2D75087604031D6E
:100AF0007A2D7B2D822D73080A128A11FC270A1287
:100B00008A110E2E7508093E83120313A000760881
:100B10000318013E003EA100200884008317211C19
:100B200083130008A200840A0008A30022082304FB
:100B300003199B2D9C2DCE2D7508093EA00076082B
:100B40000318013E003EA100200884008317211CE9
:100B500083130008A200840A0008A3007508023E5F
:100B6000A40076080318013E003EA5002408840076
:100B70008317251C83130008A600840A0008A70019
:100B80002708803AA8002308803A2802031DCA2DAE
:100B9000220826020318CD2DCE2D0E2E75088400B6
:100BA0008317761C8313000883120313A000840AA2
:100BB0000008A1007508023EA20076080318013E55
:100BC000003EA300220884008317231C831300081F
:100BD0002007A5002108A4000318A40A801FF12DF6
:100BE000A403831203132408A60025088400831796
:100BF000261C8313730880007508023EA000760847
:100C00000318013E003EA100200884008317211C28
:100C1000831301308007840A0318800A0800F70153
:100C2000F70A01300A128A15B2270A128A117C309B
:100C300083120313A0008030A1000A128A154426F3
:100C40000A128A110A128A151A270A128A118312A5
:100C50000313360883160313DB00831203133508CE
:100C600083160313DA006430F3000030F4005B08ED
:100C7000F6005A08F5000A128A1500260A128A118F
:100C8000740883160313D7007308D6006430F3008A
:100C90000030F4005B08F6005A08F5000A128A15C5
:100CA0008D250A128A11740883160313D90073085C
:100CB000D800C63083120313D100AB30D2008316A4
:100CC0000313570883120313D40083160313560823
:100CD00083120313D30083160313590883120313DB
:100CE000D60083160313580883120313D5000A1283
:100CF0008A15DA240A128A11F701F70A02300A1259
:100D00008A15B2270A128A11C63083120313A00073
:100D10000030A1000A128A1544260A128A1108001E
:100D2000013083120313BB006B08BD006A08BC00CE
:100D30001F30BE000030BF0083160313C501D62E3E
:100D4000FF30BE070318BF0AFF30BF073E08A63EAC
:100D500084000A30F3000030F4003A08F600390845
:100D6000F5000A128A158D250A128A117308303E81
:100D70008313800083120313BB01FF30BC070318E9
:100D8000BD0AFF30BD070A30F3000030F4003A0816
:100D9000F6003908F5000A128A1500260A128A118F
:100DA000740883120313BA007308B90083123E0853
:100DB0003F040319DC2EDD2EFB2E39083A04031DF7
:100DC000E22EE32EA02E3B08031DE72EE82EA02ED8
:100DD0003D08803AFF0080307F02031DF12E013074
:100DE0003C02031CF42EF52EFB2E83120313EE1887
:100DF000FA2EFB2EA02E831203133708AF003808FB
:100E0000B0003E08A63EB1003D08B3003C08B20069
:100E10000A128A119C220A128A11080000308312D9
:100E20000313B3000030B2000030B1000030B00056
:100E30002B082A042904280403191F2F202F6B2FA5
:100E40000130B4002E2F0130F8000310A80DA90DB9
:100E5000AA0DAB0DF80B252F0130B407AB1F312FB6
:100E6000322F232F0130F8000310B00DB10DB20D59
:100E7000B30DF80B342F2B082F02031D492F2A081E
:100E80002E02031D492F29082D02031D492F280872
:100E90002C02031C4C2F4D2F5C2F2808AC02290874
:100EA000031C290FAD022A08031C2A0FAE022B08CF
:100EB000031C2B0FAF02301401300310AB0CAA0C33
:100EC000A90CA80CFF3E031D5D2F0130B402031DC9
:100ED0006A2F6B2F322F3308AB003208AA0031087B
:100EE000A9003008A800080000300A128A159524CD
:100EF0000A128A111A30F800F830F700F70B7E2F2B
:100F0000F80B7E2F000003300A128A155C240A12A7
:100F10008A110730F8007D30F700F70B8D2FF80BA2
:100F20008D2F03300A128A155C240A128A110F30A1
:100F3000F8004730F700F70B9B2FF80B9B2FA02FE3
:100F400003300A128A155C240A128A1102300A122E
:100F50008A155C240A128A1102300A128A155C244E
:100F60000A128A1108300A128A155C240A128A11A0
:100F700000300A128A155C240A128A110C300A12F7
:100F80008A155C240A128A1100300A128A155C2420
:100F90000A128A1106300A128A155C240A128A1172
:100FA000080083120313AD01AE01EE2F2C08F700E9
:100FB000F8017708F3007808F4002A08F5002B08F8
:100FC000F6000A128A116F250A128A110130831263
:100FD0000313AD070318AE0A0030AE072D0829072A
:100FE000F7007708840083130008AC002C08031D69
:0A0FF000FA2FFB2FD62F080008008F
:1018A80064008001840A0406031900340406552CD8
:1018B800F60083120313081176080A128A15952474
:1018C8000A128A158312031388150630F500303082
:1018D800F400F40B6D2CF50B6D2C00008312031330
:1018E80088110800740883160313A3007308A20064
:1018F800A401A501F901FA01DC30831203138E005B
:101908000B308F001014892C640079087A040319AD
:101918008E2C8F2C882C831203131010F901FA01D6
:101928000800F300731C992C9A2C9E2C8312031325
:101938000816A12C831203130812F31CA42CA52C3F
:10194800A72C8816A82C8812731DAB2CAC2CAE2C97
:101958000817AF2C0813F31DB22CB32CB52C88171D
:10196800B62C88130800831203134E08D000C92C24
:101978004C08C0004D08C1005030C2004F08C300D9
:101988000A128A11E0230A128A15831203135008D7
:1019980084000A128A110A230A128A15003A031DC2
:1019A800D62CD72CBC2CCC01CD0108005330831287
:1019B8000313D8005108D9000030DA00DB01DC013C
:1019C800E201E3015930CC000030CD005208CE00CE
:1019D8005830CF000A128A15B7240A128A158312C2
:1019E80003135B085107D70057088400831380014D
:1019F8000800F701F801731C022D032D092D750845
:101A0800F7070318F80A7608F80701300310F50DF0
:101A1800F60DFF3E031D0A2D01300310F40CF30CE4
:101A2800FF3E031D112D73087404031D1C2D1D2D6D
:101A3800FF2C7808F4007708F3000800F70077080F
:101A4800F5000F30F5057708F600F030F60583123B
:101A5800031308157608F40004300310F40CFF3E55
:101A6800031D312D74080A128A1595240A128A1545
:101A78008312031388150D30F400F40B412D8312E3
:101A88000313881175080A128A1595240A128A15F3
:101A98008312031388150D30F400F40B512D8312B3
:101AA800031388110800FF3083160313860088018A
:101AB80087018113011381150114811401158B17F6
:101AC8000B160B170C148312031390101016901694
:101AD800DC308E000B308F001010831603131F109C
:101AE8009F101F119F11831203131F139F13831637
:101AF80003139F179E01831203139E011F140A12DA
:101B08008A1174270A128A15831203138801870120
:101B18000800730874040319922D932DC02D013009
:101B2800F7009F2D01300310F30DF40DFF3E031D48
:101B3800972D0130F707F41FA22DA32D962D7408B9
:101B48007602031DA92D73087502031CAC2DAD2D5B
:101B5800B32D7308F5027408031CF603F60201306E
:101B68000310F40CF30CFF3E031DB42D0130F702F3
:101B7800031DBF2DC02DA32D7608F4007508F300B2
:101B880008008B1CC82DC92DD02D8B100130831255
:101B98000313EC000030ED00831203130C1CD52D49
:101BA800D62DF92D0C10DC308E000B308F00013053
:101BB80083160313A4070318A50A0030A5072508F0
:101BC800803AF0002308803A7002031DED2D2208A8
:101BD8002402031CF02DF12DF92D0130F9000030FD
:101BE800FA0083160313A401A50172088A00710E76
:101BF8008300FE0E7E0E090083120313A101A201C9
:101C0800730874040319092E0A2E3F2E0130A00010
:101C1800162E01300310F30DF40DFF3E031D0E2E9A
:101C28000130A007F41F192E1A2E0D2E01300310B3
:101C3800A10DA20DFF3E031D1B2E74087602031D85
:101C4800272E73087502031C2A2E2B2E322E73089A
:101C5800F5027408031CF603F60221140130031080
:101C6800F40CF30CFF3E031D332E0130A002031DBC
:101C78003E2E3F2E1A2E2208F4002108F3000800F9
:101C880083120313A501A6016D2E25082007A300C2
:101C98002108A2000318A20AA51F532EA20383122B
:101CA80003132208A4002408FF00230884000A1252
:101CB8008A1100230A128A150A128A1522250A1285
:101CC8008A15013083120313A5070318A60A0030EA
:101CD800A60725082007A3002108A2000318A20AC6
:101CE800A51F772EA203831203132208A400240839
:101CF800FF00230884000A128A1100230A128A1599
:101D0800003A031D882E892E492E08000030F7005E
:101D18000030F6000030F5000030F40083120313A1
:101D2800201C972E982EAF2E2408F407250803119F
:101D38000318013E0319A12EF507260803110318FD
:101D4800013E0319A82EF607270803110318013EC0
:101D58000319AF2EF7070130F3000310A40DA50DEA
:101D6800A60DA70DF30BB12E01300310A30CA20C86
:101D7800A10CA00CFF3E031DB92E23082204210448
:101D88002004031DC82EC92E922E7708A3007608BA
:101D9800A2007508A1007408A0000800C6308312CC
:101DA8000313D100C530D2000A128A15DA240A12A8
:101DB8008A15F701F70A01300A128A15B2270A12A2
:101DC8008A15C63083120313A0000030A1000A123E
:101DD8008A1544260A128A15C63083120313D100C5
:101DE8009C30D2000A128A1566270A128A158312B5
:101DF80003133608D4003508D3000A128A15DA24EA
:101E08000A128A15F701F70A02300A128A15B22750
:101E18000A128A15C63083120313A0000030A100ED
:101E28000A128A1544260A128A1508008312031317
:101E38009F151F129F12053083120313B700B70BAB
:101E4800232F262F831203131F151F192C2F2D2F15
:101E5800292F1E08B900831603131E0883120313C3
:101E6800B8000030AB000030AA000330A900FF30F2
:101E7800A8003808A0003908A100A201A301003079
:101E8800A7000030A6000530A5007830A4000A128B
:101E98008A158A260A128A15831203132308AF00AB
:101EA8002208AE002108AD002008AC000A128A11F1
:101EB8000E270A128A15831203132908B600280868
:101EC800B5000800831203139F111F129F120530DB
:101ED80083120313B700B70B6F2F722F83120313EC
:101EE8001F151F19782F792F752F1E08B900831613
:101EF80003131E0883120313B8000030AB00003030
:101F0800AA000330A900FF30A8003808A00039084B
:101F1800A100A201A3010030A7000030A6000030F4
:101F2800A5006430A4000A128A158A260A128A15A6
:101F3800831203132308AF002208AE002108AD0066
:101F48002008AC000A128A110E270A128A15831279
:101F580003132908B6002808B500080083120313E4
:101F6800A0002003031DB92FBA2FDA2F77087F3E70
:101F7800A3002308F80004300310F80CFF3E031DEB
:101F8800C02F7808A1002308A2000F30A20521085D
:101F98000A128A155C240A128A158312031322086E
:101FA8000A128A155C240A128A15FF2F02302006AD
:101FB800031DDF2FE02FFF2F7708BF3EA300230864
:101FC800F80004300310F80CFF3E031DE62F7808D4
:101FD800A1002308A2000F30A20521080A128A15C1
:101FE8005C240A128A158312031322080A128A151E
:081FF8005C240A128A1508009E
:02400E00753FFC
:00000001FF
